:0200000009C035
:10000200FECFFDCFFCCFFBCFFACFF9CFF8CFF7CFA2
:10001200F6CFF894EE27ECBBE5BFF8E1A4B7A77FD3
:10002200A4BFF1BDE1BD8DE0A2E0ED938A95E9F7B1
:1000320080E4A0E6ED938A95E9F7EFE9EDBFC0E72A
:1000420018C0C09AC19802C0C098C19AC2980895B7
:10005200C098C198C29A0895E881E7B98BE18A9560
:10006200F1F7369A349BFECF349AE4B1F5B121967A
:100072000895E0E8E6BDE0E0E6BDE4E0E8BBE7E0E5
:10008200E7BBE0E0EFBDE3BFE2BFE6BFE9BDEBBF28
:10009200E5BFE9BFE0E8E8B9E0E0E3B9E4BBE4B317
:1000A200E370E4BBE4B3E4BBE0E0E7B9E3E8E6B95C
:1000B20029D0FF93EF9329D0AF91BF91AE17BF071D
:1000C20028F420D0E83EA3E0FA0708F001C0B9DF27
:1000D20019D0FF93EF9319D0AF91BF91EA17FB07A5
:1000E20018F410D0759708F401C0AEDF0BD0FF935F
:1000F200EF930BD0AF91BF91EA17FB0709F4A8DF8A
:10010200D7CFFFCFE2E0EA93A7CFE3E0EA93A4CF11
:00000001FF
