:0200000009C035
:10000200FECFFDCFFCCFFBCFFACFF9CFF8CFF7CFA2
:10001200F6CFF894EE27ECBBE5BFF8E1A4B7A77FD3
:10002200A4BFF1BDE1BD8DE0A2E0ED938A95E9F7B1
:1000320080E4A0E6ED938A95E9F7EFE9EDBFC0E72A
:100042000BC0C09AC19802C0C098C19AC2980895C4
:10005200C098C198C29A0895E0E8E6BDE0E0E6BD26
:10006200E4E0E8BBE7E0E7BBE0E0EFBDE3BFE2BF0F
:10007200E6BFE9BDEBBFE5BFE9BFE0E8E8B9E0E014
:10008200E3B9E4BBE4B3E370E4BBE4B3E4BBE0E0B4
:10009200E7B9E3E8E6B9D8DF04D0D3DF02D0FBCF7B
:1000A200FFCFE0EDF7E0FA93EA9306D0D1DFE8EE76
:1000B200F3E0FA93EA9300C0E991F991309639F0AE
:1000C20080ED97E00197F1F7A8953197C9F7089568
:00000001FF
