:0E00000009C0FECFFDCFFCCFFBCFFACFF9CF6A
:10000E00F8CFF7CFF6CFF894EE27ECBBE5BFF8E1CB
:10001E00A4B7A77FA4BFF1BDE1BD8DE0A2E0ED9333
:10002E008A95E9F780E4A0E6ED938A95E9F7EFE982
:10003E00EDBFC0E718C0C09AC19802C0C098C19A5F
:10004E00C2980895C098C198C29A0895E881E7B9F8
:10005E008BE18A95F1F7369A349BFECF349AE4B150
:10006E00F5B121960895E0E8E6BDE0E0E6BDE4E0F6
:10007E00E8BBE7E0E7BBE0E0EFBDE3BFE2BFE6BF12
:10008E00E9BDEBBFE5BFE9BFE0E8E8B9E0E0E3B901
:10009E00E4BBE4B3E370E4BBE4B3E4BBE0E0E7B994
:1000AE00E3E8E6B91FD0FF93EF931FD0AF91BF9156
:1000BE00AE17BF0708F4BFDF15D0FF93EF9315D02F
:1000CE00AF91BF91EA17FB0708F4B8DF0BD0FF938F
:1000DE00EF930BD0AF91BF91EA17FB0709F4B2DF94
:1000EE00E1CFFFCFE2E0EA93B1CFE3E0EA93AECF08
:00000001FF
