:0600000009C0FECFFDCF98
:10000600FCCFFBCFFACFF9CFF8CFF7CFF6CFF894E6
:10001600EE27ECBBE5BFF8E1A4B7A77FA4BFF1BD0F
:10002600E1BD8DE0A2E0ED938A95E9F780E4A0E6D4
:10003600ED938A95E9F7EFE9EDBFC0E70EC0E881D9
:10004600E064E7B98BE18A95F1F7369A349BFECFE7
:10005600349AE4B1F5B121960895E0E8E6BDE0E012
:10006600E6BDE4E0E8BBE7E0E7BBE0E0EFBDE3BF09
:10007600E2BFE6BFE9BDEBBFE5BFE9BFE0E8E8B92F
:10008600E0E0E3B9E4BBE4B3E370E4BBE4B3E4BBB0
:10009600E0E4E7B9E3E8E6B9E2E0EA93D0DFE43F7B
:1000A600A1E0FA0710F4C29801C0C29AF5CFFFCFBB
:00000001FF
