:0A00000009C0FECFFDCFFCCFFBCFFF
:10000A00FACFF9CFF8CFF7CFF6CFF894EE27ECBBBB
:10001A00E5BFF8E1A4B7A77FA4BFF1BDE1BD8DE0BC
:10002A00A2E0ED938A95E9F780E4A0E6ED938A953C
:10003A00E9F7EFE9EDBFC0E718C0C09AC19802C05E
:10004A00C098C19AC2980895C098C198C29A089552
:10005A00E881E7B98BE18A95F1F7369A349BFECFAE
:10006A00349AE4B1F5B121960895E0E8E6BDE0E0FE
:10007A00E6BDE8E3E8BBE7E0E7BBE0E0EFBDE3BFEE
:10008A00E2BFE6BFE9BDEBBFE5BFE9BFE0E8E8B91B
:10009A00E0E0E3B9E4BBE4B3E370E4BBE4B3E462F5
:1000AA00E4BBE0E0E7B9E3E8E6B9C298E8EEF3E0DA
:1000BA00FA93EA9349D0C29A41D0FF93EF9341D081
:1000CA003A96AF91BF91EA17FB0750F037D0FF93EA
:1000DA00EF9337D03A97AF91BF91AE17BF0708F4A5
:1000EA0001C029C02ED0FF93EF9328D0AF91BF91C2
:1000FA00AE17BF0718F422D0759708F402C0A0DF24
:10010A00F1CF1FD0FF93EF9319D0AF91BF91EA17A8
:10011A00FB0728F413D0E83EA3E0FA0708F002C070
:10012A008CDFEFCF0ED0FF93EF9308D0AF91BF9142
:10013A00EA17FB0709F488DFBFCFFFCFE2E0EA93B3
:10014A0087CFE3E0EA9384CFE991F991309639F0C9
:10015A0080ED97E00197F1F7A8953197C9F70895CF
:00000001FF
